:03000000020B2DC3
:0C0B2D00787FE4F6D8FD758127020B7478
:040E6B00021E000162
:100DD300120F42E51F6401451E7005120D5C80F37E
:100DE300E51F6402451E7005120A7380E6E51F6461
:0A0DF30003451E70DE120BB980D913
:030E6F0001273028
:100E4A00D2AFD2AC53877F759850538EBF538EFE64
:100E5A0053890F438920758BFD758DFDC2ABD28EE8
:010E6A002265
:03002300020F22A7
:0D0F2200C2AF309805C298859927D2AF3232
:100D5C00120E4A120EFDE51F6401451E702DE5278B
:100D6C0024D0602224FE600F14601114601324033D
:100D7C0070E4120E2480DF120E9D80DA120EB58004
:0C0D8C00D5120ECD80D0120F2F80CB228C
:0C0E720002080000020C0000020A000050
:100EFD005389F0438901758CFF758AA4D2A9D2AFAD
:030F0D00C28C2271
:03000B00020D984B
:100D9800C0E0C0D0758CFF758AA4D3E509950FE52E
:100DA80008950E5006D2B6D2B78004C2B6C2B705AF
:100DB80009E50970020508C394C8E50894004006CF
:0B0DC800750800750900D0D0D0E032A3
:100E8500E4F5C9F5C875CCA475CDFF75CAA475CBB5
:080E9500FFD2AFC2CAD2AD22A8
:03002B00020D17AC
:100D1700C0E0C0D0C2CFC2CA75CCA475CDFFD3E5A1
:100D27000D9511E50C95105004D2A48002C2A405BC
:100D37000DE50D7002050CC394C8E50C9400400E38
:100D4700750C00750D00050BE50B7002050AD2CA7C
:050D5700D0D0D0E03215
:050F49008E0E8F0F2247
:050F4E008E108F11223E
:0B0F2F00C28CC294C295C296C29722E9
:100E24003000047F5580093001047F2880027F96BA
:100E34007E00120F49758CFF758AA4D28CC294D29D
:060E440095C296D2972230
:100E9D007F967E00120F49758CFF758AA4D28CD275
:080EAD0094C295D296C297226F
:100EB5007F647E00120F49758CFF758AA4D28CD28F
:080EC50094C295C296D2972257
:100ECD007F647E00120F49758CFF758AA4D28CC287
:080EDD0094D295D296C297222F
:090EE500EF1F70011E144E600E97
:0C0EEE00751C02751DC7D51DFDD51CFA32
:030EFA0080E9226A
:040F53007F06DFFE38
:010F57002277
:060E7E000210000AC10091
:100C8100E50B6432450A7005F510751103E50B6437
:100C910064450A701BF510751110C2CA120F3A1281
:100CA1000CD08E148F15050BE50B7002050AD2CA04
:100CB100E50B6496450A70C8F51075110AC2CA128F
:0F0CC1000F3A120CD08E168F17E4F50AF50B229E
:100A7300120EFD120F10120E85D200D2CAD3E50B4F
:100A83009432E50A940040F5C2CAE4F50AF50BE591
:100A93001F6402451E6003020B2A120F3A120CD088
:100AA3008E128F13D3E513941EE512940050721225
:100AB3000F2FD2CA120C81D2CAD3E50B9432E50AA6
:100AC300940040F5E4F50AF50BC2CAD3E515951772
:100AD300E51495164012D3E515941EE514940040D1
:100AE30007120ECD7F4A801BD3E5179515E51695A2
:100AF300144014D3E517941EE51694004009120E12
:100B0300B57F547E018011120E9D7F047E01120E6B
:100B1300E5120ECD7F647E00120EE5120F2F020A3E
:0A0B230092120E24020A92C2002270
:080F3A00D280120F53C2802285
:100F1000D2AFD2ABE4F58DF58B53890F438910C264
:020F20008E221F
:100CD0003081FDD28E2081FDC28EAF8DEFFEAD8BB7
:100CE0007C00E42DF522EC3EF521FCAD22E4120956
:100CF000AB7B9A7A9979D9783F120800E4FBFA79AC
:100D0000C878421209091209E48E238F24E4F58D74
:070D1000F58BAE23AF242296
:070F4200D2AFD2AAD28A222D
:100DFD008E1A8F1BE51B451A601CC2A57FF47E0160
:100E0D00120EE5D2A57FF47E01120EE5E51B151B32
:070E1D0070E2151A80DE22CD
:03001300020C23B9
:100C2300C0E0C0F0C083C082C0D075D000C000C097
:100C330001C002C003C004C005C006C0077F0A7E0E
:100C430000120EE5A2B3B3501A051FE51F7002058B
:100C53001E6404451E7005F51E751F01AF1FAE1EF1
:100C6300120DFDD007D006D005D004D003D002D09A
:0E0C730001D000D0D0D082D083D0F0D0E032BB
:100BB900120EFD120F10D201E51F6403451E705479
:100BC900800ED3E5269414E5259400500F120F2FBB
:100BD900120F3A120CD08E258F2680E6308412200F
:100BE900870F120E9D7F0F7E00120EE5120ECD802B
:100BF90013308714208411120E9D7F0F7E00120E70
:100C0900E5120EB57F3C8005120E247F467E001248
:0A0C19000EE580A4120F2FC2012285
:10080000EC4D6011E8497017ED33EC3304600DE4F2
:10081000FCFFFEFD22E933E8330470F8020A5012AF
:100820000A1B58046009E4CC2481500628500902B0
:100830000A5A284003020A57C0E0EB4A7044B980C4
:1008400006D0E0FB020A46EF4E701CBD8008EBFFAD
:10085000EAFEE9FD80EBE98DF0A4FEE5F00208E98F
:10086000E9CDF9EAFEEBFFEF89F0A4FCE5F0CE89D3
:10087000F0A42EFFE435F0CD89F0A42DFEE435F090
:100880008067EF4E7005BD80D780C3EF8BF0A4ACBE
:10089000F0EE8BF0A42CFCE435F0F8EF8AF0A42CF9
:1008A000E5F038FCE433CB8DF0A42CFCE5F03BF80C
:1008B000EE8AF0A42CFCE5F038F8E433CF89F0A4FC
:1008C0002CFCE5F038CF3400CE89F0A42FFFE5F002
:1008D0003EFEE433C98DF0A42EFEE5F039CD8AF05A
:1008E000A42FFFE5F03EFEE43DFD33D0E0FB5007D2
:1008F0000BBB000F020A5AEC2CFCEF33FFEE33FE69
:06090000ED33FD020A3296
:10090600020A5AEC5D046005E859047003020A50B5
:10091600120A1B580460F6EC4860F2EC7004FDFE07
:10092600FF22C860DB2481C85009C39860025006C4
:10093600020A579850CAF582E9294B4A7005AB82DC
:10094600020A4675F0007C1A7880C3EF9BEE9AED9A
:1009560099400DC3EF9BFFEE9AFEED99FDE842F03C
:10096600DC23ACF0D0E0FFD0E0FED0E0FDAB82208F
:10097600E7101BEB60BAEC2CFCEF33FFEE33FEED19
:1009860033FD020A32E803F830E705C0F075F000DF
:10099600EF2FFFEE33FEED33FD40B830E7C280AAFD
:1009A60075F020800E75F010800575F0087D007ECC
:1009B600007F003392D530D503120A65EC33401020
:1009C600EF33FFEE33FEED33FDEC33FCD5F0ED22D5
:0E09D600E5F0247EA2D513CC92E7CDCEFF2211
:1009E400EDD2E7CD33EC3392D524814006E4FFFE0B
:1009F400FDFC22FCE4CFCECDCC24E0501174FF806A
:100A0400EDC3CC13CCCD13CDCE13CECF13CF047006
:070A1400F030D5DE020A6597
:100A1B00E9D2E7C933E833F892D5EDD2E7CD33EC21
:070A2B0033FC5002B2D5229A
:100A3200EC30E7100FBF000C0EBE00080DBD000425
:100A42000BEB6014A2D5EB13FCED92E7FD2274FFD1
:100A5200FCFDFEFF22E480F8A2D574FF13FC7D802A
:030A6200E480EF3E
:100B3900020DD3E493A3F8E493A34003F68001F2F2
:100B490008DFF48029E493A3F85407240CC8C333BD
:100B5900C4540F4420C8834004F456800146F6DF8C
:100B6900E4800B0102040810204080900E6BE47EA3
:100B7900019360BCA3FF543F30E509541FFEE49381
:100B8900A360010ECF54C025E060A840B8E493A348
:100B9900FAE493A3F8E493A3C8C582C8CAC583CA73
:100BA900F0A3C8C582C8CAC583CADFE9DEE780BE2B
:010E8400006D
:0E0A6500C3E49FFFE49EFEE49DFDE49CFC22A2
:00000001FF
